{
  "_format": "hh-sol-artifact-1",
  "contractName": "ElectionGuard",
  "sourceName": "contracts/ElectionGuard.sol",
  "abi": [
    {
      "inputs": [
        {
          "internalType": "string",
          "name": "_electionName",
          "type": "string"
        }
      ],
      "stateMutability": "nonpayable",
      "type": "constructor"
    },
    {
      "anonymous": false,
      "inputs": [
        {
          "indexed": false,
          "internalType": "uint256",
          "name": "id",
          "type": "uint256"
        },
        {
          "indexed": false,
          "internalType": "string",
          "name": "name",
          "type": "string"
        },
        {
          "indexed": false,
          "internalType": "string",
          "name": "party",
          "type": "string"
        }
      ],
      "name": "CandidateAdded",
      "type": "event"
    },
    {
      "anonymous": false,
      "inputs": [],
      "name": "ElectionEnded",
      "type": "event"
    },
    {
      "anonymous": false,
      "inputs": [
        {
          "indexed": false,
          "internalType": "string",
          "name": "name",
          "type": "string"
        }
      ],
      "name": "ElectionStarted",
      "type": "event"
    },
    {
      "anonymous": false,
      "inputs": [
        {
          "indexed": true,
          "internalType": "address",
          "name": "voter",
          "type": "address"
        },
        {
          "indexed": true,
          "internalType": "uint256",
          "name": "candidateId",
          "type": "uint256"
        }
      ],
      "name": "VoteCast",
      "type": "event"
    },
    {
      "anonymous": false,
      "inputs": [
        {
          "indexed": true,
          "internalType": "address",
          "name": "voter",
          "type": "address"
        }
      ],
      "name": "VoterRegistered",
      "type": "event"
    },
    {
      "inputs": [
        {
          "internalType": "string",
          "name": "_name",
          "type": "string"
        },
        {
          "internalType": "string",
          "name": "_party",
          "type": "string"
        }
      ],
      "name": "addCandidate",
      "outputs": [],
      "stateMutability": "nonpayable",
      "type": "function"
    },
    {
      "inputs": [],
      "name": "admin",
      "outputs": [
        {
          "internalType": "address",
          "name": "",
          "type": "address"
        }
      ],
      "stateMutability": "view",
      "type": "function"
    },
    {
      "inputs": [],
      "name": "candidatesCount",
      "outputs": [
        {
          "internalType": "uint256",
          "name": "",
          "type": "uint256"
        }
      ],
      "stateMutability": "view",
      "type": "function"
    },
    {
      "inputs": [],
      "name": "electionName",
      "outputs": [
        {
          "internalType": "string",
          "name": "",
          "type": "string"
        }
      ],
      "stateMutability": "view",
      "type": "function"
    },
    {
      "inputs": [],
      "name": "endElection",
      "outputs": [],
      "stateMutability": "nonpayable",
      "type": "function"
    },
    {
      "inputs": [],
      "name": "getAllCandidates",
      "outputs": [
        {
          "components": [
            {
              "internalType": "uint256",
              "name": "id",
              "type": "uint256"
            },
            {
              "internalType": "string",
              "name": "name",
              "type": "string"
            },
            {
              "internalType": "string",
              "name": "party",
              "type": "string"
            },
            {
              "internalType": "uint256",
              "name": "voteCount",
              "type": "uint256"
            }
          ],
          "internalType": "struct ElectionGuard.Candidate[]",
          "name": "",
          "type": "tuple[]"
        }
      ],
      "stateMutability": "view",
      "type": "function"
    },
    {
      "inputs": [
        {
          "internalType": "uint256",
          "name": "_id",
          "type": "uint256"
        }
      ],
      "name": "getCandidate",
      "outputs": [
        {
          "internalType": "uint256",
          "name": "id",
          "type": "uint256"
        },
        {
          "internalType": "string",
          "name": "name",
          "type": "string"
        },
        {
          "internalType": "string",
          "name": "party",
          "type": "string"
        },
        {
          "internalType": "uint256",
          "name": "voteCount",
          "type": "uint256"
        }
      ],
      "stateMutability": "view",
      "type": "function"
    },
    {
      "inputs": [
        {
          "internalType": "address",
          "name": "_voter",
          "type": "address"
        },
        {
          "internalType": "bytes32",
          "name": "_nidHash",
          "type": "bytes32"
        }
      ],
      "name": "registerVoter",
      "outputs": [],
      "stateMutability": "nonpayable",
      "type": "function"
    },
    {
      "inputs": [
        {
          "internalType": "uint256",
          "name": "",
          "type": "uint256"
        }
      ],
      "name": "registeredVoterList",
      "outputs": [
        {
          "internalType": "address",
          "name": "",
          "type": "address"
        }
      ],
      "stateMutability": "view",
      "type": "function"
    },
    {
      "inputs": [],
      "name": "startElection",
      "outputs": [],
      "stateMutability": "nonpayable",
      "type": "function"
    },
    {
      "inputs": [],
      "name": "state",
      "outputs": [
        {
          "internalType": "enum ElectionGuard.ElectionState",
          "name": "",
          "type": "uint8"
        }
      ],
      "stateMutability": "view",
      "type": "function"
    },
    {
      "inputs": [],
      "name": "totalRegisteredVoters",
      "outputs": [
        {
          "internalType": "uint256",
          "name": "",
          "type": "uint256"
        }
      ],
      "stateMutability": "view",
      "type": "function"
    },
    {
      "inputs": [],
      "name": "totalVotesCast",
      "outputs": [
        {
          "internalType": "uint256",
          "name": "",
          "type": "uint256"
        }
      ],
      "stateMutability": "view",
      "type": "function"
    },
    {
      "inputs": [
        {
          "internalType": "bytes32",
          "name": "",
          "type": "bytes32"
        }
      ],
      "name": "usedNidHashes",
      "outputs": [
        {
          "internalType": "bool",
          "name": "",
          "type": "bool"
        }
      ],
      "stateMutability": "view",
      "type": "function"
    },
    {
      "inputs": [
        {
          "internalType": "uint256",
          "name": "_candidateId",
          "type": "uint256"
        }
      ],
      "name": "vote",
      "outputs": [],
      "stateMutability": "nonpayable",
      "type": "function"
    },
    {
      "inputs": [
        {
          "internalType": "address",
          "name": "",
          "type": "address"
        }
      ],
      "name": "voters",
      "outputs": [
        {
          "internalType": "bool",
          "name": "isRegistered",
          "type": "bool"
        },
        {
          "internalType": "bool",
          "name": "hasVoted",
          "type": "bool"
        },
        {
          "internalType": "bytes32",
          "name": "nidHash",
          "type": "bytes32"
        }
      ],
      "stateMutability": "view",
      "type": "function"
    }
  ],
  "bytecode": "0x60806040523480156200001157600080fd5b506040516200176e3803806200176e833981016040819052620000349162000072565b600080546001600160a01b031916331790556001620000548282620001d6565b5050620002a2565b634e487b7160e01b600052604160045260246000fd5b600060208083850312156200008657600080fd5b82516001600160401b03808211156200009e57600080fd5b818501915085601f830112620000b357600080fd5b815181811115620000c857620000c86200005c565b604051601f8201601f19908116603f01168101908382118183101715620000f357620000f36200005c565b8160405282815288868487010111156200010c57600080fd5b600093505b8284101562000130578484018601518185018701529285019262000111565b600086848301015280965050505050505092915050565b600181811c908216806200015c57607f821691505b6020821081036200017d57634e487b7160e01b600052602260045260246000fd5b50919050565b601f821115620001d157600081815260208120601f850160051c81016020861015620001ac5750805b601f850160051c820191505b81811015620001cd57828155600101620001b8565b5050505b505050565b81516001600160401b03811115620001f257620001f26200005c565b6200020a8162000203845462000147565b8462000183565b602080601f831160018114620002425760008415620002295750858301515b600019600386901b1c1916600185901b178555620001cd565b600085815260208120601f198616915b82811015620002735788860151825594840194600190910190840162000252565b5085821015620002925787850151600019600388901b60f8161c191681555b5050505050600190811b01905550565b6114bc80620002b26000396000f3fe608060405234801561001057600080fd5b50600436106100ff5760003560e01c8063701c6d5311610097578063c19d93fb11610066578063c19d93fb14610235578063e01a9eef14610256578063f851a44014610281578063fc6e1d761461029457600080fd5b8063701c6d53146101945780637de418d5146101c757806385e8e7a7146101cf578063a3ec138d146101e457600080fd5b80632e6997fe116100d35780632e6997fe1461014c57806335b8e8201461016157806359f784681461018457806362d73eb81461018c57600080fd5b8062aa7464146101045780630121b93f1461011b57806326541b56146101305780632d35a8a214610143575b600080fd5b6005545b6040519081526020015b60405180910390f35b61012e610129366004610ef2565b6102a7565b005b61012e61013e366004610f54565b610478565b61010860035481565b610154610651565b6040516101129190611006565b61017461016f366004610ef2565b6108c6565b60405161011294939291906110a2565b61012e610a48565b61012e610b15565b6101b76101a2366004610ef2565b60066020526000908152604090205460ff1681565b6040519015158152602001610112565b610108610c3d565b6101d7610c7c565b60405161011291906110df565b6102186101f2366004611115565b6004602052600090815260409020805460019091015460ff808316926101009004169083565b604080519315158452911515602084015290820152606001610112565b60005461024990600160a01b900460ff1681565b6040516101129190611146565b610269610264366004610ef2565b610d0a565b6040516001600160a01b039091168152602001610112565b600054610269906001600160a01b031681565b61012e6102a236600461116e565b610d34565b6001600054600160a01b900460ff1660028111156102c7576102c7611130565b146103135760405162461bcd60e51b8152602060048201526017602482015276456c656374696f6e206973206e6f74206f6e676f696e6760481b60448201526064015b60405180910390fd5b336000908152600460205260409020805460ff166103735760405162461bcd60e51b815260206004820152601e60248201527f596f7520617265206e6f742061207265676973746572656420766f7465720000604482015260640161030a565b8054610100900460ff16156103c35760405162461bcd60e51b8152602060048201526016602482015275165bdd481a185d9948185b1c9958591e481d9bdd195960521b604482015260640161030a565b6000821180156103d557506003548211155b6104185760405162461bcd60e51b8152602060048201526014602482015273125b9d985b1a590818d85b991a59185d19481a5960621b604482015260640161030a565b805461ff0019166101001781556000828152600260205260408120600301805491610442836111ae565b9091555050604051829033907fa36cc2bebb74db33e9f88110a07ef56e1b31b24b4c4f51b54b1664266e29f45b90600090a35050565b6000546001600160a01b031633146104a25760405162461bcd60e51b815260040161030a906111c7565b60008054600160a01b900460ff1660028111156104c1576104c1611130565b146105225760405162461bcd60e51b815260206004820152602b60248201527f43616e6e6f74206164642063616e6469646174657320616674657220656c656360448201526a74696f6e2073746172747360a81b606482015260840161030a565b60038054906000610532836111ae565b91905055506040518060800160405280600354815260200185858080601f016020809104026020016040519081016040528093929190818152602001838380828437600092019190915250505090825250604080516020601f8601819004810282018101909252848152918101919085908590819084018382808284376000920182905250938552505050602091820181905260035481526002825260409020825181559082015160018201906105e99082611297565b50604082015160028201906105fe9082611297565b5060609190910151600391820155546040517fe64f834082661dd9ed89427b87edb6270fd6dad17198b0938f0edd058914c87f91610643918790879087908790611380565b60405180910390a150505050565b6060600060035467ffffffffffffffff811115610670576106706111fe565b6040519080825280602002602001820160405280156106cc57816020015b6106b96040518060800160405280600081526020016060815260200160608152602001600081525090565b81526020019060019003908161068e5790505b50905060015b60035481116108c057600260008281526020019081526020016000206040518060800160405290816000820154815260200160018201805461071390611214565b80601f016020809104026020016040519081016040528092919081815260200182805461073f90611214565b801561078c5780601f106107615761010080835404028352916020019161078c565b820191906000526020600020905b81548152906001019060200180831161076f57829003601f168201915b505050505081526020016002820180546107a590611214565b80601f01602080910402602001604051908101604052809291908181526020018280546107d190611214565b801561081e5780601f106107f35761010080835404028352916020019161081e565b820191906000526020600020905b81548152906001019060200180831161080157829003601f168201915b505050505081526020016003820154815250508260018361083f91906113b9565b8151811061084f5761084f6113d2565b60209081029190910101526002600054600160a01b900460ff16600281111561087a5761087a611130565b146108ae5760008261088d6001846113b9565b8151811061089d5761089d6113d2565b602002602001015160600181815250505b806108b8816111ae565b9150506106d2565b50919050565b60008181526002602081905260408220606091829184918290600054600160a01b900460ff1660028111156108fd576108fd611130565b1461090957600061090f565b81600301545b9050816000015482600101836002018382805461092b90611214565b80601f016020809104026020016040519081016040528092919081815260200182805461095790611214565b80156109a45780601f10610979576101008083540402835291602001916109a4565b820191906000526020600020905b81548152906001019060200180831161098757829003601f168201915b505050505092508180546109b790611214565b80601f01602080910402602001604051908101604052809291908181526020018280546109e390611214565b8015610a305780601f10610a0557610100808354040283529160200191610a30565b820191906000526020600020905b815481529060010190602001808311610a1357829003601f168201915b50505050509150955095509550955050509193509193565b6000546001600160a01b03163314610a725760405162461bcd60e51b815260040161030a906111c7565b6001600054600160a01b900460ff166002811115610a9257610a92611130565b14610ad95760405162461bcd60e51b8152602060048201526017602482015276456c656374696f6e206973206e6f74206f6e676f696e6760481b604482015260640161030a565b6000805460ff60a01b1916600160a11b1781556040517f66ec723071e4bb646f7b35d31bc2dee8510979bd8c180edd0690d4f5e802f1e49190a1565b6000546001600160a01b03163314610b3f5760405162461bcd60e51b815260040161030a906111c7565b600060035411610b915760405162461bcd60e51b815260206004820181905260248201527f416464206174206c65617374206f6e652063616e646964617465206669727374604482015260640161030a565b60008054600160a01b900460ff166002811115610bb057610bb0611130565b14610bef5760405162461bcd60e51b815260206004820152600f60248201526e105b1c9958591e481cdd185c9d1959608a1b604482015260640161030a565b6000805460ff60a01b1916600160a01b1790556040517f736ec040ea65c273ad673ccd25c5a9543fbe81eac0306098d37ec46c1ba5e9e690610c33906001906113e8565b60405180910390a1565b60008060015b60035481116108c057600081815260026020526040902060030154610c689083611473565b915080610c74816111ae565b915050610c43565b60018054610c8990611214565b80601f0160208091040260200160405190810160405280929190818152602001828054610cb590611214565b8015610d025780601f10610cd757610100808354040283529160200191610d02565b820191906000526020600020905b815481529060010190602001808311610ce557829003601f168201915b505050505081565b60058181548110610d1a57600080fd5b6000918252602090912001546001600160a01b0316905081565b6000546001600160a01b03163314610d5e5760405162461bcd60e51b815260040161030a906111c7565b6001600160a01b03821660009081526004602052604090205460ff1615610dbc5760405162461bcd60e51b8152602060048201526012602482015271105b1c9958591e481c9959da5cdd195c995960721b604482015260640161030a565b60008181526006602052604090205460ff1615610e145760405162461bcd60e51b815260206004820152601660248201527513925108185b1c9958591e481c9959da5cdd195c995960521b604482015260640161030a565b604080516060810182526001808252600060208084018281528486018781526001600160a01b0389168085526004845287852096518754935161ffff1990941690151561ff00191617610100931515939093029290921786555194840194909455600580548085019091557f036b6384b5eca791c62761152d0c79bb0604c104a5fb6f4eb0703f3154bb3db00180546001600160a01b0319168517905585825260069052838120805460ff1916909217909155915190917fb6be2187d059cc2a55fe29e0e503b566e1e0f8c8780096e185429350acffd3dd91a25050565b600060208284031215610f0457600080fd5b5035919050565b60008083601f840112610f1d57600080fd5b50813567ffffffffffffffff811115610f3557600080fd5b602083019150836020828501011115610f4d57600080fd5b9250929050565b60008060008060408587031215610f6a57600080fd5b843567ffffffffffffffff80821115610f8257600080fd5b610f8e88838901610f0b565b90965094506020870135915080821115610fa757600080fd5b50610fb487828801610f0b565b95989497509550505050565b6000815180845260005b81811015610fe657602081850181015186830182015201610fca565b506000602082860101526020601f19601f83011685010191505092915050565b60006020808301818452808551808352604092508286019150828160051b87010184880160005b8381101561109457603f19898403018552815160808151855288820151818a87015261105b82870182610fc0565b91505087820151858203898701526110738282610fc0565b6060938401519690930195909552509487019492509086019060010161102d565b509098975050505050505050565b8481526080602082015260006110bb6080830186610fc0565b82810360408401526110cd8186610fc0565b91505082606083015295945050505050565b6020815260006110f26020830184610fc0565b9392505050565b80356001600160a01b038116811461111057600080fd5b919050565b60006020828403121561112757600080fd5b6110f2826110f9565b634e487b7160e01b600052602160045260246000fd5b602081016003831061116857634e487b7160e01b600052602160045260246000fd5b91905290565b6000806040838503121561118157600080fd5b61118a836110f9565b946020939093013593505050565b634e487b7160e01b600052601160045260246000fd5b6000600182016111c0576111c0611198565b5060010190565b60208082526018908201527f4f6e6c792061646d696e2063616e2063616c6c20746869730000000000000000604082015260600190565b634e487b7160e01b600052604160045260246000fd5b600181811c9082168061122857607f821691505b6020821081036108c057634e487b7160e01b600052602260045260246000fd5b601f82111561129257600081815260208120601f850160051c8101602086101561126f5750805b601f850160051c820191505b8181101561128e5782815560010161127b565b5050505b505050565b815167ffffffffffffffff8111156112b1576112b16111fe565b6112c5816112bf8454611214565b84611248565b602080601f8311600181146112fa57600084156112e25750858301515b600019600386901b1c1916600185901b17855561128e565b600085815260208120601f198616915b828110156113295788860151825594840194600190910190840161130a565b50858210156113475787850151600019600388901b60f8161c191681555b5050505050600190811b01905550565b81835281816020850137506000828201602090810191909152601f909101601f19169091010190565b85815260606020820152600061139a606083018688611357565b82810360408401526113ad818587611357565b98975050505050505050565b818103818111156113cc576113cc611198565b92915050565b634e487b7160e01b600052603260045260246000fd5b60006020808352600084546113fc81611214565b8084870152604060018084166000811461141d576001811461143757611465565b60ff1985168984015283151560051b890183019550611465565b896000528660002060005b8581101561145d5781548b8201860152908301908801611442565b8a0184019650505b509398975050505050505050565b808201808211156113cc576113cc61119856fea2646970667358221220e8f60f0259382e23bbb64cefe7d343376f3ed09769d01c2ee8bfac4164a5d7b164736f6c63430008130033",
  "linkReferences": {},
  "deployedLinkReferences": {}
}